{
  "contractName": "StakingWithEpoch",
  "abi": [
    {
      "inputs": [
        {
          "internalType": "contract IERC20",
          "name": "_rewardToken",
          "type": "address"
        },
        {
          "internalType": "uint256",
          "name": "_rewardPerBlock",
          "type": "uint256"
        },
        {
          "internalType": "contract IERC20",
          "name": "_lpToken",
          "type": "address"
        },
        {
          "internalType": "uint256",
          "name": "_startBlock",
          "type": "uint256"
        },
        {
          "internalType": "uint256",
          "name": "_bonusEndBlock",
          "type": "uint256"
        },
        {
          "internalType": "address",
          "name": "_adminAddress",
          "type": "address"
        }
      ],
      "stateMutability": "nonpayable",
      "type": "constructor"
    },
    {
      "anonymous": false,
      "inputs": [
        {
          "indexed": true,
          "internalType": "address",
          "name": "user",
          "type": "address"
        },
        {
          "indexed": true,
          "internalType": "uint256",
          "name": "epoch",
          "type": "uint256"
        },
        {
          "indexed": false,
          "internalType": "uint256",
          "name": "amount",
          "type": "uint256"
        }
      ],
      "name": "Deposit",
      "type": "event"
    },
    {
      "anonymous": false,
      "inputs": [
        {
          "indexed": true,
          "internalType": "address",
          "name": "user",
          "type": "address"
        },
        {
          "indexed": true,
          "internalType": "uint256",
          "name": "pid",
          "type": "uint256"
        },
        {
          "indexed": false,
          "internalType": "uint256",
          "name": "amount",
          "type": "uint256"
        }
      ],
      "name": "EmergencyWithdraw",
      "type": "event"
    },
    {
      "anonymous": false,
      "inputs": [
        {
          "indexed": true,
          "internalType": "address",
          "name": "previousOwner",
          "type": "address"
        },
        {
          "indexed": true,
          "internalType": "address",
          "name": "newOwner",
          "type": "address"
        }
      ],
      "name": "OwnershipTransferred",
      "type": "event"
    },
    {
      "anonymous": false,
      "inputs": [
        {
          "indexed": true,
          "internalType": "address",
          "name": "user",
          "type": "address"
        },
        {
          "indexed": true,
          "internalType": "uint256",
          "name": "epoch",
          "type": "uint256"
        },
        {
          "indexed": false,
          "internalType": "uint256",
          "name": "amount",
          "type": "uint256"
        }
      ],
      "name": "Withdraw",
      "type": "event"
    },
    {
      "inputs": [],
      "name": "adminAddress",
      "outputs": [
        {
          "internalType": "address",
          "name": "",
          "type": "address"
        }
      ],
      "stateMutability": "view",
      "type": "function",
      "constant": true
    },
    {
      "inputs": [
        {
          "internalType": "uint256",
          "name": "",
          "type": "uint256"
        }
      ],
      "name": "epochPool",
      "outputs": [
        {
          "internalType": "uint256",
          "name": "lastRewardBlock",
          "type": "uint256"
        },
        {
          "internalType": "uint256",
          "name": "accRewardPerShare",
          "type": "uint256"
        },
        {
          "internalType": "uint256",
          "name": "totalAmount",
          "type": "uint256"
        },
        {
          "internalType": "uint256",
          "name": "startBlock",
          "type": "uint256"
        },
        {
          "internalType": "uint256",
          "name": "endBlock",
          "type": "uint256"
        }
      ],
      "stateMutability": "view",
      "type": "function",
      "constant": true
    },
    {
      "inputs": [],
      "name": "lpToken",
      "outputs": [
        {
          "internalType": "contract IERC20",
          "name": "",
          "type": "address"
        }
      ],
      "stateMutability": "view",
      "type": "function",
      "constant": true
    },
    {
      "inputs": [],
      "name": "owner",
      "outputs": [
        {
          "internalType": "address",
          "name": "",
          "type": "address"
        }
      ],
      "stateMutability": "view",
      "type": "function",
      "constant": true
    },
    {
      "inputs": [],
      "name": "renounceOwnership",
      "outputs": [],
      "stateMutability": "nonpayable",
      "type": "function"
    },
    {
      "inputs": [],
      "name": "rewardPerBlock",
      "outputs": [
        {
          "internalType": "uint256",
          "name": "",
          "type": "uint256"
        }
      ],
      "stateMutability": "view",
      "type": "function",
      "constant": true
    },
    {
      "inputs": [],
      "name": "rewardToken",
      "outputs": [
        {
          "internalType": "contract IERC20",
          "name": "",
          "type": "address"
        }
      ],
      "stateMutability": "view",
      "type": "function",
      "constant": true
    },
    {
      "inputs": [
        {
          "internalType": "address",
          "name": "newOwner",
          "type": "address"
        }
      ],
      "name": "transferOwnership",
      "outputs": [],
      "stateMutability": "nonpayable",
      "type": "function"
    },
    {
      "inputs": [
        {
          "internalType": "address",
          "name": "",
          "type": "address"
        }
      ],
      "name": "userInfo",
      "outputs": [
        {
          "internalType": "uint256",
          "name": "amount",
          "type": "uint256"
        },
        {
          "internalType": "uint256",
          "name": "rewardDebt",
          "type": "uint256"
        },
        {
          "internalType": "bool",
          "name": "inBlackList",
          "type": "bool"
        },
        {
          "internalType": "uint256",
          "name": "userEpoch",
          "type": "uint256"
        }
      ],
      "stateMutability": "view",
      "type": "function",
      "constant": true
    },
    {
      "inputs": [
        {
          "internalType": "uint256",
          "name": "_startBlock",
          "type": "uint256"
        },
        {
          "internalType": "uint256",
          "name": "_bonusEndBlock",
          "type": "uint256"
        }
      ],
      "name": "addEpochPool",
      "outputs": [],
      "stateMutability": "nonpayable",
      "type": "function"
    },
    {
      "inputs": [
        {
          "internalType": "uint256",
          "name": "_epoch",
          "type": "uint256"
        },
        {
          "internalType": "uint256",
          "name": "_startBlock",
          "type": "uint256"
        },
        {
          "internalType": "uint256",
          "name": "_bonusEndBlock",
          "type": "uint256"
        }
      ],
      "name": "updateEpochPool",
      "outputs": [],
      "stateMutability": "nonpayable",
      "type": "function"
    },
    {
      "inputs": [
        {
          "internalType": "address",
          "name": "_adminAddress",
          "type": "address"
        }
      ],
      "name": "setAdmin",
      "outputs": [],
      "stateMutability": "nonpayable",
      "type": "function"
    },
    {
      "inputs": [
        {
          "internalType": "address",
          "name": "_blacklistAddress",
          "type": "address"
        }
      ],
      "name": "setBlackList",
      "outputs": [],
      "stateMutability": "nonpayable",
      "type": "function"
    },
    {
      "inputs": [
        {
          "internalType": "address",
          "name": "_blacklistAddress",
          "type": "address"
        }
      ],
      "name": "removeBlackList",
      "outputs": [],
      "stateMutability": "nonpayable",
      "type": "function"
    },
    {
      "inputs": [
        {
          "internalType": "contract IERC20",
          "name": "_reward",
          "type": "address"
        }
      ],
      "name": "setRewardToken",
      "outputs": [],
      "stateMutability": "nonpayable",
      "type": "function"
    },
    {
      "inputs": [
        {
          "internalType": "uint256",
          "name": "_rewardCount",
          "type": "uint256"
        }
      ],
      "name": "setRewardPerBlock",
      "outputs": [],
      "stateMutability": "nonpayable",
      "type": "function"
    },
    {
      "inputs": [
        {
          "internalType": "uint256",
          "name": "_from",
          "type": "uint256"
        },
        {
          "internalType": "uint256",
          "name": "_to",
          "type": "uint256"
        },
        {
          "internalType": "uint256",
          "name": "_epoch",
          "type": "uint256"
        }
      ],
      "name": "getMultiplier",
      "outputs": [
        {
          "internalType": "uint256",
          "name": "",
          "type": "uint256"
        }
      ],
      "stateMutability": "view",
      "type": "function",
      "constant": true
    },
    {
      "inputs": [
        {
          "internalType": "address",
          "name": "_user",
          "type": "address"
        }
      ],
      "name": "pendingReward",
      "outputs": [
        {
          "internalType": "uint256",
          "name": "",
          "type": "uint256"
        }
      ],
      "stateMutability": "view",
      "type": "function",
      "constant": true
    },
    {
      "inputs": [
        {
          "internalType": "uint256",
          "name": "_epoch",
          "type": "uint256"
        }
      ],
      "name": "updatePool",
      "outputs": [],
      "stateMutability": "nonpayable",
      "type": "function"
    },
    {
      "inputs": [],
      "name": "setMark",
      "outputs": [],
      "stateMutability": "nonpayable",
      "type": "function"
    },
    {
      "inputs": [
        {
          "internalType": "uint256",
          "name": "_amount",
          "type": "uint256"
        }
      ],
      "name": "deposit",
      "outputs": [],
      "stateMutability": "nonpayable",
      "type": "function"
    },
    {
      "inputs": [
        {
          "internalType": "uint256",
          "name": "_amount",
          "type": "uint256"
        }
      ],
      "name": "withdraw",
      "outputs": [],
      "stateMutability": "nonpayable",
      "type": "function"
    },
    {
      "inputs": [
        {
          "internalType": "uint256",
          "name": "_pid",
          "type": "uint256"
        }
      ],
      "name": "emergencyWithdraw",
      "outputs": [],
      "stateMutability": "nonpayable",
      "type": "function"
    },
    {
      "inputs": [
        {
          "internalType": "address",
          "name": "_user",
          "type": "address"
        }
      ],
      "name": "getStaking",
      "outputs": [
        {
          "internalType": "uint256",
          "name": "",
          "type": "uint256"
        }
      ],
      "stateMutability": "view",
      "type": "function",
      "constant": true
    },
    {
      "inputs": [
        {
          "internalType": "address",
          "name": "_user",
          "type": "address"
        }
      ],
      "name": "getUserEpoch",
      "outputs": [
        {
          "internalType": "uint256",
          "name": "",
          "type": "uint256"
        }
      ],
      "stateMutability": "view",
      "type": "function",
      "constant": true
    },
    {
      "inputs": [],
      "name": "getCurrentEpoch",
      "outputs": [
        {
          "internalType": "uint256",
          "name": "",
          "type": "uint256"
        }
      ],
      "stateMutability": "view",
      "type": "function",
      "constant": true
    },
    {
      "inputs": [
        {
          "internalType": "uint256",
          "name": "_epoch",
          "type": "uint256"
        }
      ],
      "name": "getEpochBlockNumber",
      "outputs": [
        {
          "internalType": "uint256",
          "name": "",
          "type": "uint256"
        },
        {
          "internalType": "uint256",
          "name": "",
          "type": "uint256"
        }
      ],
      "stateMutability": "view",
      "type": "function",
      "constant": true
    },
    {
      "inputs": [],
      "name": "getTotalSupply",
      "outputs": [
        {
          "internalType": "uint256",
          "name": "",
          "type": "uint256"
        }
      ],
      "stateMutability": "view",
      "type": "function",
      "constant": true
    },
    {
      "inputs": [
        {
          "internalType": "uint256",
          "name": "_epoch",
          "type": "uint256"
        }
      ],
      "name": "getPoolSupply",
      "outputs": [
        {
          "internalType": "uint256",
          "name": "",
          "type": "uint256"
        }
      ],
      "stateMutability": "view",
      "type": "function",
      "constant": true
    }
  ],
  "bytecode": "0x608060405234801561001057600080fd5b50604051611d0c380380611d0c833981810160405260c081101561003357600080fd5b508051602082015160408301516060840151608085015160a090950151939492939192909160006100626101de565b600080546001600160a01b0319166001600160a01b0383169081178255604051929350917f8be0079c531659141344cd1fd0a4f28419497f9722a3daafe3b4186f6b6457e0908290a350600180546001600160a01b03199081166001600160a01b039889161790915560049590955560028054861694871694909417909355600380549094169290941691909117909155600060068190556040805160a0810182528381526020808201848152928201848152606083019586526080830196875293805260079052517f6d5257204ebe7d88fd91ae87941cb2dd9d8062b64ae5a2bd2d28ec40b9fbf6df55517f6d5257204ebe7d88fd91ae87941cb2dd9d8062b64ae5a2bd2d28ec40b9fbf6e055517f6d5257204ebe7d88fd91ae87941cb2dd9d8062b64ae5a2bd2d28ec40b9fbf6e155517f6d5257204ebe7d88fd91ae87941cb2dd9d8062b64ae5a2bd2d28ec40b9fbf6e255517f6d5257204ebe7d88fd91ae87941cb2dd9d8062b64ae5a2bd2d28ec40b9fbf6e3556101e2565b3390565b611b1b806101f16000396000f3fe608060405234801561001057600080fd5b506004361061015f5760003560e01c806307fe7f3d1461016457806311c886331461016e5780631959a002146101a65780632e1a7d4d146101f257806345cecdf81461020f57806351eb05a61461022c5780635312ea8e146102495780635fcbd2851461026657806362e655461461028a5780636b65a3b9146102ad5780636d1aaf73146102d3578063704b6c0214610309578063715018a61461032f57806372700241146103375780637bafb0291461035d5780638ae39cac146103865780638aee81271461038e5780638da5cb5b146103b4578063a0535bd6146103bc578063b6b55f25146103e5578063b97dd9e214610402578063bb872b4a1461040a578063c4e41b2214610427578063d4533f121461042f578063e4997dc514610477578063f2fde38b1461049d578063f40f0f52146104c3578063f7c618c1146104e9578063fc6f9468146104f1575b600080fd5b61016c6104f9565b005b6101946004803603602081101561018457600080fd5b50356001600160a01b03166105e6565b60408051918252519081900360200190f35b6101cc600480360360208110156101bc57600080fd5b50356001600160a01b0316610601565b604080519485526020850193909352901515838301526060830152519081900360800190f35b61016c6004803603602081101561020857600080fd5b503561062e565b6101946004803603602081101561022557600080fd5b5035610811565b61016c6004803603602081101561024257600080fd5b5035610826565b61016c6004803603602081101561025f57600080fd5b50356108b2565b61026e610921565b604080516001600160a01b039092168252519081900360200190f35b61016c600480360360408110156102a057600080fd5b5080359060200135610930565b610194600480360360208110156102c357600080fd5b50356001600160a01b03166109f3565b6102f0600480360360208110156102e957600080fd5b5035610a11565b6040805192835260208301919091528051918290030190f35b61016c6004803603602081101561031f57600080fd5b50356001600160a01b0316610a2e565b61016c610aa8565b61016c6004803603602081101561034d57600080fd5b50356001600160a01b0316610b38565b6101946004803603606081101561037357600080fd5b5080359060208101359060400135610bb4565b610194610c2a565b61016c600480360360208110156103a457600080fd5b50356001600160a01b0316610c30565b61026e610caa565b61016c600480360360608110156103d257600080fd5b5080359060208101359060400135610cb9565b61016c600480360360208110156103fb57600080fd5b5035610d8a565b610194610f3c565b61016c6004803603602081101561042057600080fd5b5035610f42565b610194610f9f565b61044c6004803603602081101561044557600080fd5b503561101b565b6040805195865260208601949094528484019290925260608401526080830152519081900360a00190f35b61016c6004803603602081101561048d57600080fd5b50356001600160a01b031661104a565b61016c600480360360208110156104b357600080fd5b50356001600160a01b03166110c3565b610194600480360360208110156104d957600080fd5b50356001600160a01b03166111a9565b61026e6112c8565b61026e6112d7565b33600090815260056020908152604080832060038101548085526007909352922061052382610826565b825415610585576000610564846001015461055e64e8d4a51000610558866001015489600001546112e690919063ffffffff16565b90611348565b90611387565b9050801561058357600154610583906001600160a01b031633836113c9565b505b8254600282015461059591611387565b6002808301919091556006805460038601556000600186018190559054815260076020526040902084549181015490916105cf9190611420565b60028201556006546105e090610826565b50505050565b6001600160a01b031660009081526005602052604090205490565b60056020526000908152604090208054600182015460028301546003909301549192909160ff9091169084565b3360009081526005602052604090208054821115610688576040805162461bcd60e51b81526020600482015260126024820152711dda5d1a191c985dce881b9bdd0819dbdbd960721b604482015290519081900360640190fd5b6003810154600081815260076020526040902060028101548411156106f4576040805162461bcd60e51b815260206004820152601e60248201527f77697468647261773a206e6f7420676f6f6420706f6f6c20616d6f756e740000604482015290519081900360640190fd5b825484111561073f576040805162461bcd60e51b81526020600482015260126024820152711dda5d1a191c985dce881b9bdd0819dbdbd960721b604482015290519081900360640190fd5b61074882610826565b6000610776846001015461055e64e8d4a51000610558866001015489600001546112e690919063ffffffff16565b90508015610788576107883382611478565b84156107b357835461079a9086611387565b84556002546107b3906001600160a01b031633876113c9565b600182015484546107ce9164e8d4a5100091610558916112e6565b6001850155604080518681529051849133917ff279e6a1f5e320cca91135676d9cb6e44ca8a08c0b88342bcdb1144f6511b5689181900360200190a35050505050565b60009081526007602052604090206002015490565b60008181526007602052604090208054431161084257506108af565b60028101548061085557504390556108af565b600061086683600001544386610bb4565b9050600061087f600454836112e690919063ffffffff16565b90506108a2610897846105588464e8d4a510006112e6565b600186015490611420565b6001850155505043909155505b50565b336000818152600560205260409020805460025491926108db926001600160a01b0316916113c9565b80546040805191825251839133917fbb757047c2b5f3974fe26b7c10f732e7bce710b0952a71082702781e62ae05959181900360200190a3600080825560019091015550565b6002546001600160a01b031681565b610938611608565b6000546001600160a01b03908116911614610988576040805162461bcd60e51b81526020600482018190526024820152600080516020611a7c833981519152604482015290519081900360640190fd5b600654610996906001611420565b60068190556040805160a08101825284815260006020808301828152838501838152606085019889526080850197885295835260079091529290209051815590516001820155905160028201559151600383015551600490910155565b6001600160a01b031660009081526005602052604090206003015490565b600090815260076020526040902060038101546004909101549091565b610a36611608565b6000546001600160a01b03908116911614610a86576040805162461bcd60e51b81526020600482018190526024820152600080516020611a7c833981519152604482015290519081900360640190fd5b600380546001600160a01b0319166001600160a01b0392909216919091179055565b610ab0611608565b6000546001600160a01b03908116911614610b00576040805162461bcd60e51b81526020600482018190526024820152600080516020611a7c833981519152604482015290519081900360640190fd5b600080546040516001600160a01b0390911690600080516020611a9c833981519152908390a3600080546001600160a01b0319169055565b6003546001600160a01b03163314610b8d576040805162461bcd60e51b815260206004820152601360248201527230b236b4b71d103bb937b7339039b2b73232b960691b604482015290519081900360640190fd5b6001600160a01b03166000908152600560205260409020600201805460ff19166001179055565b600081815260076020526040812060048101548411610bdf57610bd78486611387565b915050610c23565b80600401548510610bf457610bd78486611387565b610bd7610c0e82600401548661138790919063ffffffff16565b6004830154610c1d9088611387565b90611420565b9392505050565b60045481565b610c38611608565b6000546001600160a01b03908116911614610c88576040805162461bcd60e51b81526020600482018190526024820152600080516020611a7c833981519152604482015290519081900360640190fd5b600180546001600160a01b0319166001600160a01b0392909216919091179055565b6000546001600160a01b031690565b610cc1611608565b6000546001600160a01b03908116911614610d11576040805162461bcd60e51b81526020600482018190526024820152600080516020611a7c833981519152604482015290519081900360640190fd5b600654831115610d68576040805162461bcd60e51b815260206004820152601f60248201527f50695374616b696e675769746845706f63683a2077726f6e672065706f636800604482015290519081900360640190fd5b6000928352600760205260409092206003810182905560048101929092559055565b600654600090815260076020908152604080832033845260059092529091208054610db85760065460038201555b600654816003015414610dfc5760405162461bcd60e51b8152600401808060200182810382526027815260200180611a0e6027913960400191505060405180910390fd5b600281015460ff1615610e4f576040805162461bcd60e51b815260206004820152601660248201527519195c1bdcda5d0e881a5b88189b1858dac81b1a5cdd60521b604482015290519081900360640190fd5b610e5a600654610826565b805415610e9d576000610e8f826001015461055e64e8d4a51000610558876001015487600001546112e690919063ffffffff16565b9050610e9b3382611478565b505b8215610ede57600254610ebb906001600160a01b031633308661160c565b8054610ec79084611420565b81556002820154610ed89084611420565b60028301555b60018201548154610ef99164e8d4a5100091610558916112e6565b600182015560065460408051858152905133917f90890809c654f11d6e72a28fa60149770a0d11ec6c92319d6ceb2bb0a4ea1a15919081900360200190a3505050565b60065490565b610f4a611608565b6000546001600160a01b03908116911614610f9a576040805162461bcd60e51b81526020600482018190526024820152600080516020611a7c833981519152604482015290519081900360640190fd5b600455565b600254604080516370a0823160e01b815230600482015290516000926001600160a01b0316916370a08231916024808301926020929190829003018186803b158015610fea57600080fd5b505afa158015610ffe573d6000803e3d6000fd5b505050506040513d602081101561101457600080fd5b5051905090565b600760205260009081526040902080546001820154600283015460038401546004909401549293919290919085565b6003546001600160a01b0316331461109f576040805162461bcd60e51b815260206004820152601360248201527230b236b4b71d103bb937b7339039b2b73232b960691b604482015290519081900360640190fd5b6001600160a01b03166000908152600560205260409020600201805460ff19169055565b6110cb611608565b6000546001600160a01b0390811691161461111b576040805162461bcd60e51b81526020600482018190526024820152600080516020611a7c833981519152604482015290519081900360640190fd5b6001600160a01b0381166111605760405162461bcd60e51b81526004018080602001828103825260268152602001806119e86026913960400191505060405180910390fd5b600080546040516001600160a01b0380851693921691600080516020611a9c83398151915291a3600080546001600160a01b0319166001600160a01b0392909216919091179055565b6001600160a01b0381166000908152600560205260408120600381015460065481111561121b576040805162461bcd60e51b815260206004820152601b60248201527a0a0d2a6e8c2d6d2dcce8ae0dec6d07440eee4dedcce40cae0dec6d602b1b604482015290519081900360640190fd5b60008181526007602052604090206001810154600282015482544311801561124257508015155b1561129557600061125884600001544387610bb4565b90506000611271600454836112e690919063ffffffff16565b9050611290611289846105588464e8d4a510006112e6565b8590611420565b935050505b6112bd856001015461055e64e8d4a51000610558868a600001546112e690919063ffffffff16565b979650505050505050565b6001546001600160a01b031681565b6003546001600160a01b031681565b6000826112f557506000611342565b8282028284828161130257fe5b041461133f5760405162461bcd60e51b8152600401808060200182810382526021815260200180611a5b6021913960400191505060405180910390fd5b90505b92915050565b600061133f83836040518060400160405280601a815260200179536166654d6174683a206469766973696f6e206279207a65726f60301b815250611666565b600061133f83836040518060400160405280601e81526020017f536166654d6174683a207375627472616374696f6e206f766572666c6f770000815250611708565b604080516001600160a01b038416602482015260448082018490528251808303909101815260649091019091526020810180516001600160e01b031663a9059cbb60e01b17905261141b908490611762565b505050565b60008282018381101561133f576040805162461bcd60e51b815260206004820152601b60248201527a536166654d6174683a206164646974696f6e206f766572666c6f7760281b604482015290519081900360640190fd5b600154604080516370a0823160e01b815230600482015290516000926001600160a01b0316916370a08231916024808301926020929190829003018186803b1580156114c357600080fd5b505afa1580156114d7573d6000803e3d6000fd5b505050506040513d60208110156114ed57600080fd5b5051905080821115611581576001546040805163a9059cbb60e01b81526001600160a01b038681166004830152602482018590529151919092169163a9059cbb9160448083019260209291908290030181600087803b15801561154f57600080fd5b505af1158015611563573d6000803e3d6000fd5b505050506040513d602081101561157957600080fd5b5061141b9050565b6001546040805163a9059cbb60e01b81526001600160a01b038681166004830152602482018690529151919092169163a9059cbb9160448083019260209291908290030181600087803b1580156115d757600080fd5b505af11580156115eb573d6000803e3d6000fd5b505050506040513d602081101561160157600080fd5b5050505050565b3390565b604080516001600160a01b0380861660248301528416604482015260648082018490528251808303909101815260849091019091526020810180516001600160e01b03166323b872dd60e01b1790526105e0908590611762565b600081836116f25760405162461bcd60e51b81526004018080602001828103825283818151815260200191508051906020019080838360005b838110156116b757818101518382015260200161169f565b50505050905090810190601f1680156116e45780820380516001836020036101000a031916815260200191505b509250505060405180910390fd5b5060008385816116fe57fe5b0495945050505050565b6000818484111561175a5760405162461bcd60e51b81526020600482018181528351602484015283519092839260449091019190850190808383600083156116b757818101518382015260200161169f565b505050900390565b60606117b7826040518060400160405280602081526020017f5361666545524332303a206c6f772d6c6576656c2063616c6c206661696c6564815250856001600160a01b03166118139092919063ffffffff16565b80519091501561141b578080602001905160208110156117d657600080fd5b505161141b5760405162461bcd60e51b815260040180806020018281038252602a815260200180611abc602a913960400191505060405180910390fd5b6060611822848460008561182a565b949350505050565b60608247101561186b5760405162461bcd60e51b8152600401808060200182810382526026815260200180611a356026913960400191505060405180910390fd5b6118748561197b565b6118c5576040805162461bcd60e51b815260206004820152601d60248201527f416464726573733a2063616c6c20746f206e6f6e2d636f6e7472616374000000604482015290519081900360640190fd5b60006060866001600160a01b031685876040518082805190602001908083835b602083106119045780518252601f1990920191602091820191016118e5565b6001836020036101000a03801982511681845116808217855250505050505090500191505060006040518083038185875af1925050503d8060008114611966576040519150601f19603f3d011682016040523d82523d6000602084013e61196b565b606091505b50915091506112bd828286611981565b3b151590565b60608315611990575081610c23565b8251156119a05782518084602001fd5b60405162461bcd60e51b81526020600482018181528451602484015284518593919283926044019190850190808383600083156116b757818101518382015260200161169f56fe4f776e61626c653a206e6577206f776e657220697320746865207a65726f206164647265737350695374616b696e675769746845706f63683a20757365722065706f63682069732077726f6e67416464726573733a20696e73756666696369656e742062616c616e636520666f722063616c6c536166654d6174683a206d756c7469706c69636174696f6e206f766572666c6f774f776e61626c653a2063616c6c6572206973206e6f7420746865206f776e65728be0079c531659141344cd1fd0a4f28419497f9722a3daafe3b4186f6b6457e05361666545524332303a204552433230206f7065726174696f6e20646964206e6f742073756363656564a264697066735822122033cc53da0dba9e93369f62c90c8cebfc3315602e9eee2836ac36ecccb8111d5f64736f6c634300060c0033",
  "immutableReferences": {},
  "source": "// SPDX-License-Identifier: UNLICENSED\npragma solidity >=0.6.0 <0.8.0;\n\nimport \"@openzeppelin/contracts/token/ERC20/IERC20.sol\";\nimport \"@openzeppelin/contracts/token/ERC20/SafeERC20.sol\";\nimport \"@openzeppelin/contracts/utils/EnumerableSet.sol\";\nimport \"@openzeppelin/contracts/math/SafeMath.sol\";\nimport \"@openzeppelin/contracts/access/Ownable.sol\";\n\ncontract StakingWithEpoch is Ownable {\n    using SafeMath for uint256;\n    using SafeERC20 for IERC20;\n    // Info of each user.\n    struct UserInfo {\n        uint256 amount; // How many LP tokens the user has provided.\n        uint256 rewardDebt; // Reward debt. See explanation below.\n        bool inBlackList;\n        uint256 userEpoch;\n        //\n        // We do some fancy math here. Basically, any point in time, the amount of MAPIs\n        // entitled to a user but is pending to be distributed is:\n        //\n        //   pending reward = (user.amount * pool.accRewardPerShare) - user.rewardDebt\n        //\n        // Whenever a user deposits or withdraws LP tokens to a pool. Here's what happens:\n        //   1. The pool's `accRewardPerShare` (and `lastRewardBlock`) gets updated.\n        //   2. User receives the pending reward sent to his/her address.\n        //   3. User's `amount` gets updated.\n        //   4. User's `rewardDebt` gets updated.\n    }\n    // Info of each pool.\n    struct PoolInfo {\n        uint256 lastRewardBlock; // Last block number that SUSHIs distribution occurs.\n        uint256 accRewardPerShare; // Accumulated SUSHIs per share, times 1e12. See below.\n\n        uint256 totalAmount; // The total amount of current epoch\n        uint256 startBlock;\n        uint256 endBlock;\n    }\n    // The Reward TOKEN!\n    IERC20 public rewardToken;\n\n    //The lp token or soginal token\n    IERC20 public lpToken;\n\n    // adminAddress\n    address public adminAddress;\n\n    // MAPI tokens created per block.\n    uint256 public rewardPerBlock;\n\n    // Info of each user that stakes LP tokens.\n    mapping(address => UserInfo) public userInfo;\n   \n    //current epoch\n    uint256 internal currentEpoch;\n\n    //Info of each epoch that use pool info\n    mapping(uint256 => PoolInfo) public epochPool;\n\n    event Deposit(address indexed user, uint256 indexed epoch, uint256 amount);\n    event Withdraw(address indexed user, uint256 indexed epoch, uint256 amount);\n    event EmergencyWithdraw(\n        address indexed user,\n        uint256 indexed pid,\n        uint256 amount\n    );\n\n    constructor(\n        IERC20 _rewardToken,\n        uint256 _rewardPerBlock,\n        IERC20 _lpToken,\n        uint256 _startBlock,\n        uint256 _bonusEndBlock,\n        address _adminAddress\n    ) public {\n        rewardToken = _rewardToken;\n        \n        rewardPerBlock = _rewardPerBlock;\n\n        lpToken = _lpToken;\n\n        adminAddress = _adminAddress;\n\n        currentEpoch = 0;\n\n        // staking pool\n        epochPool[currentEpoch] = PoolInfo({\n            lastRewardBlock: _startBlock,\n            accRewardPerShare: 0,\n            totalAmount: 0,\n            startBlock: _startBlock,\n            endBlock: _bonusEndBlock\n        });\n    }\n\n    modifier onlyAdmin() {\n        require(msg.sender == adminAddress, \"admin: wrong sender\");\n        _;\n    }\n\n    function addEpochPool(uint256 _startBlock, uint256 _bonusEndBlock) public onlyOwner {\n        currentEpoch = currentEpoch.add(1);\n\n        // staking pool\n        epochPool[currentEpoch] = PoolInfo({\n            lastRewardBlock: _startBlock,\n            accRewardPerShare: 0,\n            totalAmount: 0,\n            startBlock: _startBlock,\n            endBlock: _bonusEndBlock\n        });\n    }\n\n    //update pool info for specific epoch\n    function updateEpochPool(uint256  _epoch, uint256 _startBlock, uint256 _bonusEndBlock ) public onlyOwner {\n        require(_epoch <= currentEpoch, \"PiStakingWithEpoch: wrong epoch\");\n\n        PoolInfo storage pool = epochPool[_epoch];\n        pool.startBlock = _startBlock;\n        pool.endBlock = _bonusEndBlock;\n        pool.lastRewardBlock = _startBlock;\n    }\n\n    // Update admin address by the previous dev.\n    function setAdmin(address _adminAddress) public onlyOwner {\n        adminAddress = _adminAddress;\n    }\n\n    function setBlackList(address _blacklistAddress) public onlyAdmin {\n        userInfo[_blacklistAddress].inBlackList = true;\n    }\n\n    function removeBlackList(address _blacklistAddress) public onlyAdmin {\n        userInfo[_blacklistAddress].inBlackList = false;\n    }\n\n    function setRewardToken(IERC20 _reward) public onlyOwner {\n        rewardToken = _reward;\n    }\n\n    function setRewardPerBlock(uint256 _rewardCount) public onlyOwner {\n        rewardPerBlock = _rewardCount;\n    }\n\n    // Return reward multiplier over the given _from to _to block.\n    function getMultiplier(uint256 _from, uint256 _to,uint256 _epoch)\n        public\n        view\n        returns (uint256)\n    {\n        PoolInfo storage pool = epochPool[_epoch];\n\n        if (_to <= pool.endBlock) {\n            return _to.sub(_from);\n        } else if (_from >= pool.endBlock) {\n            return _to.sub(_from);\n        } else {\n            return\n                pool.endBlock.sub(_from).add(\n                    _to.sub(pool.endBlock)\n                );\n        }\n    }\n\n    // View function to see pending Rewards on frontend.\n    function pendingReward(address _user)\n        external\n        view\n        returns (uint256)\n    {\n        UserInfo storage user = userInfo[_user];\n        uint256 _epoch = user.userEpoch;\n        require(_epoch <= currentEpoch, \"PiStakingEpoch: wrong epoch\");\n\n        PoolInfo storage pool = epochPool[_epoch];\n\n        uint256 accRewardPerShare = pool.accRewardPerShare;\n        uint256 lpSupply = pool.totalAmount;\n\n        if (block.number > pool.lastRewardBlock && lpSupply != 0) {\n            uint256 multiplier = getMultiplier(pool.lastRewardBlock, block.number, _epoch);\n\n            uint256 tokenReward = multiplier.mul(rewardPerBlock);\n\n            accRewardPerShare = accRewardPerShare.add(tokenReward.mul(1e12).div(lpSupply)\n            );\n        }\n        return user.amount.mul(accRewardPerShare).div(1e12).sub(user.rewardDebt);\n    }\n\n    // Update reward variables of the given pool to be up-to-date.\n    function updatePool(uint256 _epoch) public {\n        PoolInfo storage pool = epochPool[_epoch];\n\n        if (block.number <= pool.lastRewardBlock) {\n            return;\n        }\n        uint256 lpSupply = pool.totalAmount;\n        if (lpSupply == 0) {\n            pool.lastRewardBlock = block.number;\n            return;\n        }\n        uint256 multiplier = getMultiplier(pool.lastRewardBlock, block.number,_epoch);\n\n        uint256 tokenReward = multiplier.mul(rewardPerBlock);\n\n        pool.accRewardPerShare = pool.accRewardPerShare.add(tokenReward.mul(1e12).div(lpSupply));\n\n        pool.lastRewardBlock = block.number;\n    }\n\n    function setMark() external {\n        UserInfo storage user = userInfo[msg.sender];\n\n        uint256 oldEpoch = user.userEpoch;\n        PoolInfo storage oldPool = epochPool[oldEpoch];\n\n        updatePool(oldEpoch);\n        if (user.amount > 0) {\n             uint256 pending = user.amount.mul(oldPool.accRewardPerShare).div(1e12).sub(user.rewardDebt);\n            if(pending > 0) {\n                rewardToken.safeTransfer(address(msg.sender), pending);\n            }\n        }\n        oldPool.totalAmount = oldPool.totalAmount.sub(user.amount);\n        user.userEpoch = currentEpoch;\n        user.rewardDebt = 0;\n\n        PoolInfo storage currentPool = epochPool[currentEpoch];\n\n        currentPool.totalAmount = currentPool.totalAmount.add(user.amount); \n        updatePool(currentEpoch);\n    }\n\n\n    // Deposit LP tokens to MasterChef for SUSHI allocation.\n    function deposit(uint256 _amount) public {\n        PoolInfo storage pool = epochPool[currentEpoch];\n\n        UserInfo storage user = userInfo[msg.sender];\n\n        if (user.amount == 0) {\n            user.userEpoch = currentEpoch;\n        }\n        \n        require(user.userEpoch == currentEpoch, \"PiStakingWithEpoch: user epoch is wrong\");\n\n        require (!user.inBlackList, 'deposit: in black list');\n\n        updatePool(currentEpoch);\n        if (user.amount > 0) {\n            uint256 pending =\n                user.amount.mul(pool.accRewardPerShare).div(1e12).sub(\n                    user.rewardDebt\n                );\n            safeRewardTransfer(msg.sender, pending);\n        }\n\n        if (_amount > 0) {\n            lpToken.safeTransferFrom(\n                address(msg.sender),\n                address(this),\n                _amount\n            );\n            user.amount = user.amount.add(_amount);\n\n            pool.totalAmount =  pool.totalAmount.add(_amount);\n        }\n\n        user.rewardDebt = user.amount.mul(pool.accRewardPerShare).div(1e12);\n        emit Deposit(msg.sender, currentEpoch, _amount);\n    }\n\n    // Withdraw LP tokens from MasterChef.\n    function withdraw(uint256 _amount) public {\n        UserInfo storage user = userInfo[msg.sender];\n        require(user.amount >= _amount, \"withdraw: not good\");\n\n        uint256 userEpoch = user.userEpoch;\n\n        PoolInfo storage pool = epochPool[userEpoch];\n\n        require(pool.totalAmount >= _amount, \"withdraw: not good pool amount\");\n\n        require(user.amount >= _amount, \"withdraw: not good\");\n\n        updatePool(userEpoch);\n        uint256 pending =\n            user.amount.mul(pool.accRewardPerShare).div(1e12).sub(\n                user.rewardDebt\n            );\n\n        if (pending > 0) {\n            safeRewardTransfer(msg.sender, pending);\n        }\n        if (_amount > 0) {\n            user.amount = user.amount.sub(_amount);\n            lpToken.safeTransfer(address(msg.sender), _amount);\n        }\n        \n        user.rewardDebt = user.amount.mul(pool.accRewardPerShare).div(1e12);\n        \n        emit Withdraw(msg.sender, userEpoch, _amount);\n    }\n\n    // Withdraw without caring about rewards. EMERGENCY ONLY.\n    function emergencyWithdraw(uint256 _pid) public {\n        UserInfo storage user = userInfo[msg.sender];\n        lpToken.safeTransfer(address(msg.sender), user.amount);\n        emit EmergencyWithdraw(msg.sender, _pid, user.amount);\n        user.amount = 0;\n        user.rewardDebt = 0;\n    }\n\n    // Safe rewardToken transfer function, just in case if rounding error causes pool to not have enough SUSHIs.\n    function safeRewardTransfer(address _to, uint256 _amount) internal {\n        uint256 rewardAmount = rewardToken.balanceOf(address(this));\n        if (_amount > rewardAmount) {\n            rewardToken.transfer(_to, rewardAmount);\n        } else {\n            rewardToken.transfer(_to, _amount);\n        }\n    }\n\n\n    function getStaking(address _user) public view returns (uint256) {\n        UserInfo storage user = userInfo[_user];\n        return user.amount;\n    }\n\n    function getUserEpoch(address _user) public view returns (uint256) {\n        UserInfo storage user = userInfo[_user];\n        return user.userEpoch;\n    }\n\n    function getCurrentEpoch() public view returns (uint256) {\n        return currentEpoch;\n    }\n\n    function getEpochBlockNumber(uint256 _epoch) public view returns (uint256, uint256) {\n        PoolInfo storage pool = epochPool[_epoch];\n\n        return (pool.startBlock, pool.endBlock);\n    }\n\n    function getTotalSupply() public view returns (uint256) {\n        return lpToken.balanceOf(address(this));\n    }\n\n    function getPoolSupply(uint256 _epoch) public view returns (uint256) {\n        PoolInfo storage pool = epochPool[_epoch];\n\n        return pool.totalAmount;\n    }\n}\n",
  "sourcePath": "/Users/simon/gopath/src/github.com/Pizzap-io/PiSwap/contracts/staking/StakingWithEpoch.sol",
  "compiler": {
    "name": "solc",
    "version": "0.6.12+commit.27d51765.Emscripten.clang"
  },
  "schemaVersion": "3.4.1",
  "updatedAt": "2021-09-06T02:09:41.950Z",
  "networkType": "ethereum",
  "devdoc": {
    "kind": "dev",
    "methods": {
      "owner()": {
        "details": "Returns the address of the current owner."
      },
      "renounceOwnership()": {
        "details": "Leaves the contract without owner. It will not be possible to call `onlyOwner` functions anymore. Can only be called by the current owner. NOTE: Renouncing ownership will leave the contract without an owner, thereby removing any functionality that is only available to the owner."
      },
      "transferOwnership(address)": {
        "details": "Transfers ownership of the contract to a new account (`newOwner`). Can only be called by the current owner."
      }
    },
    "version": 1
  },
  "userdoc": {
    "kind": "user",
    "methods": {},
    "version": 1
  }
}